:020000040800F2
:1000000000500020FD1B00082D1B0008391B0008B4
:100010003F1B0008451B00084B1B000800000000A8
:10002000000000000000000000000000511B00085C
:100030005D1B000800000000691B0008751B00081C
:10004000451C0008451C0008451C0008451C00080C
:10005000451C0008451C0008451C0008451C0008FC
:10006000451C0008451C0008451C0008451C0008EC
:10007000451C0008451C0008451C0008451C0008DC
:10008000451C0008451C0008451C0008451C0008CC
:10009000451C0008451C0008451C0008451C0008BC
:1000A000451C0008451C0008451C0008451C0008AC
:1000B000811B0008451C0008451C0008451C000861
:1000C000451C0008451C0008451C0008451C00088C
:1000D000451C0008451C0008451C0008451C00087C
:1000E000451C0008451C0008451C000800000000D5
:1000F0000000000000000000000000000000000000
:0C01000000000000000000005FF808F1A3
:10010C0010B5054C237833B9044B13B10448AFF345
:10011C0000800123237010BD0C00002000000000A3
:10012C00A01C000808B5034B1BB103490348AFF3EF
:10013C00008008BD0000000010000020A01C00087A
:10014C0080B500AF084B1B68074A43F010031360DF
:10015C00032000F05DF9002000F008F801F08AFCA3
:10016C000023184680BD00BF0020024080B582B03D
:10017C0000AF7860124B1A68124B1B7819464FF47B
:10018C007A73B3FBF1F3B2FBF3F3184600F075F995
:10019C000346002B01D001230EE07B680F2B0AD8FD
:1001AC00002279684FF0FF3000F03DF9064A7B6879
:1001BC001360002300E0012318460837BD4680BDBC
:1001CC0008000020040000200000002080B400AFD4
:1001DC00054B1B781A46054B1B681344034A1360E6
:1001EC0000BFBD4680BC7047040000202C000020DE
:1001FC0080B400AF024B1B681846BD4680BC7047EC
:10020C002C00002080B584B000AF7860FFF7F0FFC1
:10021C00B8607B68FB60FB68B3F1FF3F05D0094B0E
:10022C001B781A46FB681344FB6000BFFFF7E0FF26
:10023C000246BB68D31AFA689A42F7D800BF103747
:10024C00BD4680BD0400002080B400AF044B1B6889
:10025C00034A23F00203136000BFBD4680BC704705
:10026C0010E000E080B400AF044B1B68034A43F07D
:10027C000203136000BFBD4680BC704710E000E075
:10028C0080B485B000AF78607B6803F00703FB6037
:10029C000C4BDB68BB60BA684FF6FF031340BB60C6
:1002AC00FB681A02BB68134343F0BF6343F400338B
:1002BC00BB60044ABB68D36000BF1437BD4680BC2A
:1002CC00704700BF00ED00E080B400AF044BDB686A
:1002DC001B0A03F007031846BD4680BC704700BFDD
:1002EC0000ED00E080B483B000AF0346FB71FB79F6
:1002FC0003F01F02064997F907305B09012000FA49
:10030C0002F241F8232000BF0C37BD4680BC704779
:10031C0000E100E080B483B000AF03463960FB71AC
:10032C0097F90730002B0BDA3B68DAB20C49FB79F2
:10033C0003F00F03043B1201D2B20B441A7609E00E
:10034C003B68DAB2074997F907301201D2B20B4475
:10035C0083F8002300BF0C37BD4680BC704700BF3C
:10036C0000ED00E000E100E080B489B000AFF8607F
:10037C00B9607A60FB6803F00703FB61FB69C3F1AA
:10038C000703042B28BF0423BB61FB690433062B32
:10039C0002D9FB69033B00E000237B614FF0FF3285
:1003AC00BB6902FA03F3DA43BB681A407B699A40D3
:1003BC004FF0FF317B6901FA03F3D9437B680B40A3
:1003CC00134318462437BD4680BC704780B582B0B5
:1003DC0000AF78607B68013BB3F1807F01D30123D0
:1003EC000FE00A4A7B68013B53600F214FF0FF304E
:1003FC00FFF790FF054B00229A60044B07221A600E
:10040C00002318460837BD4680BD00BF10E000E051
:10041C0080B582B000AF78607868FFF731FF00BF1D
:10042C000837BD4680BD80B586B000AF0346B960C5
:10043C007A60FB7300237B61FFF746FF78617A6873
:10044C00B9687869FFF790FF024697F90F301146AB
:10045C001846FFF75FFF00BF1837BD4680BD80B55B
:10046C0082B000AF0346FB7197F907301846FFF7CF
:10047C0039FF00BF0837BD4680BD80B582B000AFE4
:10048C0078607868FFF7A2FF034618460837BD4628
:10049C0080BD000080B48BB000AF78603960002361
:1004AC00FB610023BB6100237B6100233B620023C3
:1004BC003B6100237B6227E101227B6A02FA03F392
:1004CC00FB613B681B68FA691340BB61BA69FB6945
:1004DC009A4240F016813B685B68122B34D0122B89
:1004EC000DD8022B2BD0022B04D8002B31D0012B92
:1004FC001CD048E0032B43D0112B1BD043E0874A80
:10050C00934226D0854A934206D8854A934220D0FE
:10051C00844A93421DD036E0834A934219D0834AD1
:10052C00934216D0824A934213D02CE03B68DB688E
:10053C003B6228E03B68DB6804333B6223E03B68AA
:10054C00DB6808333B621EE03B68DB680C333B62C4
:10055C0019E03B689B68002B02D104233B6212E03C
:10056C003B689B68012B05D108233B627B68FA69C9
:10057C001A6108E008233B627B68FA695A6102E061
:10058C0000233B6200BFBB69FF2B01D87B6801E0F5
:10059C007B680433FB60BB69FF2B02D87B6A9B0032
:1005AC0002E07B6A083B9B003B61FB681A680F21E9
:1005BC003B6901FA03F3DB431A40396A3B6901FAE0
:1005CC0003F31A43FB681A603B685B6803F08053C3
:1005DC00002B00F09680574B9B69564A43F0010361
:1005EC009361544B9B6903F00103BB60BB68524A97
:1005FC007B6A9B08023352F823307B617B6A03F0E1
:10060C0003039B000F2202FA03F3DB437A691340C6
:10061C007B617B68494A934213D07B68484A93427A
:10062C000DD07B68474A934207D07B68464A934279
:10063C0001D1032306E0042304E0022302E001239A
:10064C0000E000237A6A02F00302920093407A6978
:10065C0013437B6138497B6A9B0802337A6941F802
:10066C0023203B685B6803F48033002B06D0374BA8
:10067C001A683649BB6913430B6006E0334B1A68A2
:10068C00BB69DB43314913400B603B685B6803F487
:10069C000033002B06D02D4B5A682C49BB691343F1
:1006AC004B6006E0294B5A68BB69DB432749134072
:1006BC004B603B685B6803F48013002B06D0234B24
:1006CC009A682249BB6913438B6006E01F4B9A68FA
:1006DC00BB69DB431D4913408B603B685B6803F4CB
:1006EC000013002B06D0194BDA681849BB69134369
:1006FC00CB6006E0154BDA68BB69DB43134913404A
:10070C00CB607B6A01337B627B6A0F2B7FF6D4AEA6
:10071C0000BF2C37BD4680BC704700BF00002110C5
:10072C0000001110000012100000311000003210F7
:10073C00000022100010024000000140000801409F
:10074C00000C014000100140001401400004014065
:10075C0080B483B000AF78600B467B8013467B700F
:10076C007B78002B03D07A887B681A6103E07B8846
:10077C001A047B681A6100BF0C37BD4680BC7047F9
:10078C0080B483B000AF78600B467B807B68DA68FE
:10079C007B885A407B68DA6000BF0C37BD4680BC52
:1007AC007047000080B483B000AF78600B46FB70DC
:1007BC00094B1B69084A23F004031361FB78012BD6
:1007CC0001D130BF02E040BF20BF20BF00BF0C37BB
:1007DC00BD4680BC704700BF00ED00E080B586B020
:1007EC0000AF786000233B617B681B6803F001035A
:1007FC00002B00F08780924B5B6803F00C03042BFA
:10080C000CD08F4B5B6803F00C03082B12D18C4B74
:10081C005B6803F48033B3F5803F0BD1884B1B68C6
:10082C0003F40033002B6CD07B685B68002B68D121
:10083C0001232DE27B685B68B3F5803F06D1804BCA
:10084C001B687F4A43F4803313602EE07B685B683F
:10085C00002B0CD17A4B1B68794A23F4803313603C
:10086C00774B1B68764A23F4802313601DE07B686A
:10087C005B68B3F5A02F0CD1714B1B68704A43F425
:10088C00802313606E4B1B686D4A43F480331360F6
:10089C000BE06B4B1B686A4A23F480331360684B84
:1008AC001B68674A23F4802313607B685B68002B0A
:1008BC0013D0FFF79DFC386108E0FFF799FC024666
:1008CC003B69D31A642B01D90323E1E15C4B1B6810
:1008DC0003F40033002BF0D014E0FFF789FC3861EF
:1008EC0008E0FFF785FC02463B69D31A642B01D95B
:1008FC000323CDE1524B1B6803F40033002BF0D1E2
:10090C0000E000BF7B681B6803F00203002B63D080
:10091C004B4B5B6803F00C03002B0BD0484B5B6814
:10092C0003F00C03082B1CD1454B5B6803F480339C
:10093C00002B16D1424B1B6803F00203002B05D091
:10094C007B681B69012B01D00123A1E13C4B1B6887
:10095C0023F0F8027B685B69DB00394913430B60B9
:10096C003AE07B681B69002B20D0364B01221A60C1
:10097C00FFF73EFC386108E0FFF73AFC02463B69A2
:10098C00D31A022B01D9032382E12D4B1B6803F0F0
:10099C000203002BF0D02A4B1B6823F0F8027B6873
:1009AC005B69DB00264913430B6015E0254B0022E5
:1009BC001A60FFF71DFC386108E0FFF719FC0246CE
:1009CC003B69D31A022B01D9032361E11C4B1B6831
:1009DC0003F00203002BF0D17B681B6803F00803C3
:1009EC00002B39D07B689B69002B19D0164B012248
:1009FC001A60FFF7FDFB386108E0FFF7F9FB0246D0
:100A0C003B69D31A022B01D9032341E10C4B5B6ADE
:100A1C0003F00203002BF0D0012000F0B1FA1BE030
:100A2C00094B00221A60FFF7E3FB38610EE0FFF779
:100A3C00DFFB02463B69D31A022B07D9032327E1BC
:100A4C00001002400000424280044242924B5B6A1A
:100A5C0003F00203002BEAD17B681B6803F004034C
:100A6C00002B00F0A6800023FB758B4BDB6903F099
:100A7C008053002B0DD1884BDB69874A43F08053A0
:100A8C00D361854BDB6903F08053FB60FB6801236A
:100A9C00FB75824B1B6803F48073002B18D17F4BC2
:100AAC001B687E4A43F480731360FFF7A1FB386127
:100ABC0008E0FFF79DFB02463B69D31A642B01D972
:100ACC000323E5E0754B1B6803F48073002BF0D017
:100ADC007B68DB68012B06D16F4B1B6A6E4A43F0B7
:100AEC00010313622DE07B68DB68002B0CD16A4B91
:100AFC001B6A694A23F001031362674B1B6A664A3F
:100B0C0023F0040313621CE07B68DB68052B0CD11B
:100B1C00614B1B6A604A43F0040313625E4B1B6A11
:100B2C005D4A43F0010313620BE05B4B1B6A5A4AAC
:100B3C0023F001031362584B1B6A574A23F004033A
:100B4C0013627B68DB68002B15D0FFF751FB386113
:100B5C000AE0FFF74DFB02463B69D31A41F288329B
:100B6C00934201D9032393E04B4B1B6A03F002031E
:100B7C00002BEED014E0FFF73BFB38610AE0FFF7E7
:100B8C0037FB02463B69D31A41F28832934201D9B2
:100B9C0003237DE0404B1B6A03F00203002BEED1D4
:100BAC00FB7D012B05D13C4BDB693B4A23F0805389
:100BBC00D3617B68DB69002B69D0374B5B6803F032
:100BCC000C03082B61D07B68DB69022B46D1344BBC
:100BDC0000221A60FFF70CFB386108E0FFF708FBF6
:100BEC0002463B69D31A022B01D9032350E02A4B4E
:100BFC001B6803F00073002BF0D17B681B6AB3F504
:100C0C00803F08D1244B5B6823F400327B689B68DF
:100C1C00214913434B60204B5B6823F474127B68AF
:100C2C00196A7B685B6A0B431B4913434B601C4B73
:100C3C0001221A60FFF7DCFA386108E0FFF7D8FAF6
:100C4C0002463B69D31A022B01D9032320E0124B35
:100C5C001B6803F00073002BF0D018E0104B00223F
:100C6C001A60FFF7C5FA386108E0FFF7C1FA0246CF
:100C7C003B69D31A022B01D9032309E0064B1B68ED
:100C8C0003F00073002BF0D101E0012300E00023FE
:100C9C0018461837BD4680BD001002400070004059
:100CAC006000424280B584B000AF786039600023A8
:100CBC00FB607E4B1B6803F007033A689A4210D91D
:100CCC007A4B1B6823F0070278493B6813430B608F
:100CDC00764B1B6803F007033A689A4201D0012354
:100CEC00E0E07B681B6803F00203002B20D07B68DC
:100CFC001B6803F00403002B05D06D4B5B686C4A3A
:100D0C0043F4E06353607B681B6803F00803002B1B
:100D1C0005D0674B5B68664A43F460535360644B81
:100D2C005B6823F0F0027B689B68614913434B605E
:100D3C007B681B6803F00103002B6AD07B685B683F
:100D4C00012B07D15A4B1B6803F40033002B15D130
:100D5C000123A7E07B685B68022B07D1544B1B680F
:100D6C0003F00073002B09D101239BE0504B1B684F
:100D7C0003F00203002B01D1012393E04C4B5B6881
:100D8C0023F003027B685B68494913434B60FFF710
:100D9C002FFAF8607B685B68012B12D10AE0FFF731
:100DAC0027FA0246FB68D31A41F28832934201D9E2
:100DBC00032377E03E4B5B6803F00C03042BEED16E
:100DCC0027E07B685B68022B1DD10AE0FFF710FA65
:100DDC000246FB68D31A41F28832934201D90323AD
:100DEC0060E0334B5B6803F00C03082BEED110E092
:100DFC00FFF7FEF90246FB68D31A41F288329342A0
:100E0C0001D903234EE02A4B5B6803F00C03002B43
:100E1C00EED1264B1B6803F007033A689A4210D2B6
:100E2C00224B1B6823F0070220493B6813430B60DD
:100E3C001E4B1B6803F007033A689A4201D001234A
:100E4C0030E07B681B6803F00403002B08D0184BC0
:100E5C005B6823F4E0627B68DB68154913434B60E5
:100E6C007B681B6803F00803002B09D0104B5B68F0
:100E7C0023F460527B681B69DB000D4913434B6004
:100E8C0000F01CF801460A4B5B681B0903F00F03CA
:100E9C00084AD35C21FA03F3074A13600020FFF7DA
:100EAC0065F9002318461037BD4680BD002002406E
:100EBC0000100240CC1C00080800002090B48AB03E
:100ECC0000AF2A4B3C1D0FCB84E80F00284B1B882E
:100EDC003B800023FB610023BB6100237B6200236A
:100EEC007B6100233B62234B5B68FB61FB6903F076
:100EFC000C03042B02D0082B03D02DE01E4B3B62BD
:100F0C002DE0FB699B0C03F00F0307F1280213443F
:100F1C0013F8243C7B61FB6903F48033002B13D062
:100F2C00144B5B685B0C03F0010307F128021344BC
:100F3C0013F8283CBB617B690F4A02FB03F2BB69C7
:100F4C00B2FBF3F37B6204E07B690C4A02FB03F314
:100F5C007B627B6A3B6202E0074B3B6200BF3B6AF1
:100F6C0018462837BD4690BC704700BFB81C000817
:100F7C00C81C00080010024000127A0000093D0055
:100F8C0080B485B000AF78600A4B1B680A4AA2FB9C
:100F9C0003235B0A7A6802FB03F3FB6000BFFB6868
:100FAC005A1EFA60002BF9D100BF1437BD4680BC25
:100FBC00704700BF08000020D34D621080B582B08E
:100FCC0000AF78607B68002B01D101231DE07B68AA
:100FDC0093F83D30DBB2002B06D17B68002283F8FE
:100FEC003C20786800F078FD7B68022283F83D2075
:100FFC007B681A687B6804331946104600F054FA73
:10100C007B68012283F83D20002318460837BD4633
:10101C0080BD80B483B000AF78607B681B68DA68F1
:10102C007B681B6842F00102DA607B681B681A68F7
:10103C007B681B6842F001021A60002318460C37CB
:10104C00BD4680BC704780B483B000AF78607B68CD
:10105C001B68DA687B681B6822F00102DA607B6827
:10106C001B681A6A41F211131340002B0FD17B68D5
:10107C001B681A6A40F244431340002B07D17B686B
:10108C001B681A687B681B6822F001021A60002337
:10109C0018460C37BD4680BC704780B582B000AF97
:1010AC0078607B681B681B6903F00203022B22D15A
:1010BC007B681B68DB6803F00203022B1BD17B6887
:1010CC001B686FF002021A617B6801221A777B6839
:1010DC001B689B6903F00303002B03D0786800F0B6
:1010EC00C8F905E0786800F0BBF9786800F0CAF937
:1010FC007B6800221A777B681B681B6903F004036A
:10110C00042B22D17B681B68DB6803F00403042BDF
:10111C001BD17B681B686FF004021A617B6802228A
:10112C001A777B681B689B6903F44073002B03D010
:10113C00786800F09EF905E0786800F091F978681D
:10114C0000F0A0F97B6800221A777B681B681B698A
:10115C0003F00803082B22D17B681B68DB6803F0C3
:10116C000803082B1BD17B681B686FF008021A61FF
:10117C007B6804221A777B681B68DB6903F0030326
:10118C00002B03D0786800F074F905E0786800F063
:10119C0067F9786800F076F97B6800221A777B682B
:1011AC001B681B6903F01003102B22D17B681B6892
:1011BC00DB6803F01003102B1BD17B681B686FF0EE
:1011CC0010021A617B6808221A777B681B68DB693E
:1011DC0003F44073002B03D0786800F04AF905E063
:1011EC00786800F03DF9786800F04CF97B680022D3
:1011FC001A777B681B681B6903F00103012B0ED166
:10120C007B681B68DB6803F00103012B07D17B684B
:10121C001B686FF001021A61786800F007FC7B68AC
:10122C001B681B6903F08003802B0ED17B681B6845
:10123C00DB6803F08003802B07D17B681B686FF0A1
:10124C0080021A61786800F087FA7B681B681B695A
:10125C0003F04003402B0ED17B681B68DB6803F066
:10126C004003402B07D17B681B686FF040021A616A
:10127C00786800F010F97B681B681B6903F0200389
:10128C00202B0ED17B681B68DB6803F02003202B1E
:10129C0007D17B681B686FF020021A61786800F038
:1012AC0052FA00BF0837BD4680BD80B584B000AF90
:1012BC00786039600023FB607B6893F83C30012B2D
:1012CC0001D10223C8E07B68012283F83C207B68B3
:1012DC00022283F83D207B681B689B68FB60FB68DF
:1012EC0023F07703FB60FB6823F47F43FB607B6890
:1012FC001B68FA689A603B681B68402B77D0402BC0
:10130C000ED8102B00F08A80102B02D8002B7ED028
:10131C0099E0202B00F08980302B00F08D8092E03A
:10132C00702B16D0702B04D8502B40D0602B4ED085
:10133C0089E0B3F5805F03D0B3F5005F24D082E081
:10134C007B681B689A687B681B6822F007029A60AE
:10135C0079E07B6818683B6899683B685A683B6819
:10136C00DB6800F08BF97B681B689B68FB60FB6893
:10137C0023F07703FB60FB6843F07703FB607B682B
:10138C001B68FA689A605EE07B6818683B6899682D
:10139C003B685A683B68DB6800F070F97B681B6837
:1013AC009A687B681B6842F480429A604BE07B68C9
:1013BC0018683B6859683B68DB681A4600F0DAF835
:1013CC007B681B685021184600F039F93BE07B68BC
:1013DC0018683B6859683B68DB681A4600F0FCF8F3
:1013EC007B681B686021184600F029F92BE07B68AC
:1013FC0018683B6859683B68DB681A4600F0BAF815
:10140C007B681B684021184600F019F91BE07B68CB
:10141C001B680021184600F012F914E07B681B6869
:10142C001021184600F00BF90DE07B681B68202199
:10143C00184600F004F906E07B681B68302118465A
:10144C0000F0FDF800BF7B68012283F83D207B682B
:10145C00002283F83C20002318461037BD4680BD7F
:10146C0080B483B000AF786000BF0C37BD4680BC41
:10147C00704780B483B000AF786000BF0C37BD46B6
:10148C0080BC704780B483B000AF786000BF0C376D
:10149C00BD4680BC704780B483B000AF786000BF9D
:1014AC000C37BD4680BC704780B485B000AF786007
:1014BC0039600023FB607B681B68FB607B682A4AF1
:1014CC0093420BD07B68B3F1804F07D07B68274ADF
:1014DC00934203D07B68264A934208D1FB6823F0E1
:1014EC007003FB603B685B68FA681343FB607B68C6
:1014FC001D4A93420BD07B68B3F1804F07D07B68B9
:10150C001A4A934203D07B68194A934208D1FB686C
:10151C0023F44073FB603B68DB68FA681343FB60A1
:10152C00FB6823F08003FB603B685B69FA6813433C
:10153C00FB607B68FA681A603B689A687B68DA62C1
:10154C003B681A687B689A627B68074A934203D1AE
:10155C003B681A697B681A637B6801225A6100BF79
:10156C001437BD4680BC7047002C0140000400407D
:10157C000008004080B487B000AFF860B9607A60B2
:10158C0000237B6100233B61FB681B6A3B61FB68AA
:10159C001B6A23F00102FB681A62FB689B697B6182
:1015AC007B6923F0F0037B617B681B017A69134331
:1015BC007B613B6923F00A033B613A69BB681343C7
:1015CC003B61FB687A699A61FB683A691A6200BFF1
:1015DC001C37BD4680BC704780B487B000AFF86044
:1015EC00B9607A6000237B6100233B61FB681B6A56
:1015FC0023F01002FB681A62FB689B697B61FB6835
:10160C001B6A3B617B6923F470437B617B681B0322
:10161C007A6913437B613B6923F0A0033B61BB6890
:10162C001B013A6913433B61FB687A699A61FB6859
:10163C003A691A6200BF1C37BD4680BC704780B443
:10164C0085B000AF78600B467B800023FB607B6825
:10165C009B68FB60FB6823F07003FB607B8843F0A6
:10166C0007039BB21A46FB681343FB607B68FA685E
:10167C009A6000BF1437BD4680BC704780B487B0F9
:10168C0000AFF860B9607A603B6000237B61FB6857
:10169C009B687B617B6923F47F437B613B681A0207
:1016AC007B681A43BB6813437A6913437B61FB68FD
:1016BC007A699A6000BF1C37BD4680BC704780B405
:1016CC0083B000AF786039607B6893F83C30012BB5
:1016DC0001D1022332E07B68012283F83C207B6835
:1016EC00022283F83D207B681B685A687B681B6864
:1016FC0022F070025A607B681B6859683B681A6854
:10170C007B681B680A435A607B681B689A687B6815
:10171C001B6822F080029A607B681B6899683B68A2
:10172C005A687B681B680A439A607B68012283F8BD
:10173C003D207B68002283F83C20002318460C37A0
:10174C00BD4680BC704780B483B000AF786000BFEA
:10175C000C37BD4680BC704780B483B000AF786056
:10176C0000BF0C37BD4680BC7047000080B582B00E
:10177C0000AFFEF7E5FC00F039F800F0BFF800F020
:10178C0071F8174BDB69164A43F08053D361144B45
:10179C00DB6903F080537B607B681248FFF739FCF0
:1017AC001048FFF750FC00224FF400510E48FEF792
:1017BC00CFFF41F28830FEF725FD01224FF4005196
:1017CC000948FEF7C5FF0748FFF723FCFEF73CFD71
:1017DC0001210120FEF7E6FFFEF744FDF6E700BF0E
:1017EC0000100240300000200010014080B590B085
:1017FC0000AF07F1180328220021184600F042FA26
:10180C003B1D00221A605A609A60DA601A6102234A
:10181C00BB610123BB621023FB6200237B6307F1D6
:10182C0018031846FEF7DAFF0346002B01D000F030
:10183C001BF90F237B600023BB60C023FB604FF4BC
:10184C0080633B6100237B613B1D00211846FFF741
:10185C0029FA0346002B01D000F006F900BF4037EF
:10186C00BD4680BD80B586B000AF07F108030022ED
:10187C001A605A609A60DA603B4600221A605A601D
:10188C001D4B4FF080421A601B4B46F2A7125A6058
:10189C00194B00229A60184B0E22DA60164B00226C
:1018AC001A61154B00229A611348FFF787FB034618
:1018BC00002B01D000F0D8F84FF48053BB6007F137
:1018CC00080319460C48FFF7F0FC0346002B01D027
:1018DC0000F0CAF800233B6000237B603B461946AE
:1018EC000548FFF7ECFE0346002B01D000F0BCF8D6
:1018FC0000BF1837BD4680BD3000002080B58AB0CF
:10190C0000AF07F1140300221A605A609A60DA6083
:10191C00404B9B693F4A43F0100393613D4B9B69DD
:10192C0003F010033B613B693A4B9B69394A43F026
:10193C0020039361374B9B6903F02003FB60FB682A
:10194C00344B9B69334A43F004039361314B9B69DD
:10195C0003F00403BB60BB682E4B9B692D4A43F01C
:10196C00080393612B4B9B6903F008037B607B6836
:10197C0000224FF400512848FEF7EAFE4FF40053C2
:10198C007B610123BB610023FB6102233B6207F1F6
:10199C00140319462048FEF77DFD4FF440437B614C
:1019AC000323BB6107F1140319461B48FEF772FDB4
:1019BC0003237B610323BB6107F11403194617480A
:1019CC00FEF768FD49F6FF737B610323BB6107F1EA
:1019DC00140319461248FEF75DFD4FF6FF737B6149
:1019EC000323BB6107F1140319460E48FEF752FDA1
:1019FC000D4B5B687B627B6A43F0E0637B627B6AC6
:101A0C0043F400437B62084A7B6A536000BF28376B
:101A1C00BD4680BD00100240001001400014014082
:101A2C0000080140000C01400000014080B582B06C
:101A3C0000AF78607B68094A93420BD1084B1B7846
:101A4C00012B04D14FF400510648FEF799FE044BCC
:101A5C0001221A7000BF0837BD4680BD300000203F
:101A6C00280000200010014080B400AF00BFBD462C
:101A7C0080BC704780B485B000AF154B9B69144A8D
:101A8C0043F001039361124B9B6903F00103BB60AC
:101A9C00BB680F4BDB690E4A43F08053D3610C4B90
:101AAC00DB6903F080537B607B680A4B5B68FB60EF
:101ABC00FB6823F0E063FB60FB6843F00073FB60A2
:101ACC00044AFB68536000BF1437BD4680BC7047A6
:101ADC00001002400000014080B584B000AF786077
:101AEC007B681B68B3F1804F13D10C4BDB690B4A3D
:101AFC0043F00103D361094BDB6903F00103FB6085
:101B0C00FB68002200211C20FEF78DFC1C20FEF738
:101B1C00A6FC00BF1037BD4680BD00BF00100240C0
:101B2C0080B400AF00BFBD4680BC704780B400AF2E
:101B3C00FEE780B400AFFEE780B400AFFEE780B4F0
:101B4C0000AFFEE780B400AF00BFBD4680BC70475D
:101B5C0080B400AF00BFBD4680BC704780B400AFFE
:101B6C0000BFBD4680BC704780B500AFFEF72EFBB2
:101B7C0000BF80BD80B500AF0248FFF78EFA00BFF2
:101B8C0080BD00BF3000002080B400AF154B1B6837
:101B9C00144A43F001031360124B5A681149124B5B
:101BAC0013404B600F4B1B680E4A23F0847323F4D5
:101BBC00803313600B4B1B680A4A23F48023136099
:101BCC00084B5B68074A23F4FE035360054B4FF444
:101BDC001F029A60054B4FF000629A6000BFBD4631
:101BEC0080BC7047001002400000FFF800ED00E0E0
:101BFC00002103E00B4B5B58435004310A480B4B5C
:101C0C0042189A42F6D30A4A02E0002342F8043BF7
:101C1C00084B9A42F9D3FFF7B7FF00F00FF8FFF724
:101C2C00A5FD7047E41C0008000000200C000020FB
:101C3C000C00002070000020FEE7000070B50025AD
:101C4C000C4E0D4CA41BA410A54209D100F022F897
:101C5C0000250A4E0A4CA41BA410A54205D170BD48
:101C6C0056F8253098470135EEE756F82530984759
:101C7C000135F2E7DC1C0008DC1C0008DC1C000849
:101C8C00E01C000803460244934200D1704703F85D
:101C9C00011BF9E7F8B500BFF8BC08BC9E467047BD
:0C1CAC00F8B500BFF8BC08BC9E467047AD
:101CB80002030405060708090A0B0C0D0E0F101085
:101CC80001020000000000000000000001020304FF
:041CD80006070809EA
:041CDC0031010008CA
:041CE0000D010008EA
:0C1CE400100000000100000000A24A04F3
:0400000508001BFDD7
:00000001FF
