:020000040800F2
:1000000000500020F50A0008950A0008970A000829
:10001000990A00089B0A00089D0A000800000000D9
:100020000000000000000000000000009F0A00081F
:10003000A10A000800000000A30A0008A50A0008A1
:100040003D0B00083D0B00083D0B00083D0B000870
:100050003D0B00083D0B00083D0B00083D0B000860
:100060003D0B00083D0B00083D0B00083D0B000850
:100070003D0B00083D0B00083D0B00083D0B000840
:100080003D0B00083D0B00083D0B00083D0B000830
:100090003D0B00083D0B00083D0B00083D0B000820
:1000A0003D0B00083D0B00083D0B00083D0B000810
:1000B0003D0B00083D0B00083D0B00083D0B000800
:1000C0003D0B00083D0B00083D0B00083D0B0008F0
:1000D0003D0B00083D0B00083D0B00083D0B0008E0
:1000E0003D0B00083D0B00083D0B00080000000020
:1000F0000000000000000000000000000000000000
:0C01000000000000000000005FF808F1A3
:10010C0010B5054C237833B9044B13B10448AFF345
:10011C0000800123237010BD0C00002000000000A3
:10012C00980B000808B5034B1BB103490348AFF308
:10013C00008008BD0000000010000020980B000893
:10014C0038B50E4B054618784FF47A73B3FBF0F3C1
:10015C000B4A1068B0FBF3F000F092F8044658B963
:10016C000F2D09D8024629464FF0FF3000F054F805
:10017C00044B20461D6038BD012038BD0000002016
:10018C000800002004000020074A08B5136803206B
:10019C0043F01003136000F02DF80020FFF7D0FFA0
:1001AC0000F050FC002008BD00200240034A044B24
:1001BC0011681B780B441360704700BF28000020A7
:1001CC0000000020014B1868704700BF2800002079
:1001DC0038B50446FFF7F6FF0546631C1EBF044BFB
:1001EC001B78E418FFF7EEFF401B8442FAD838BDA9
:1001FC0000000020074A0002D36800F4E06023F4FA
:10020C00E0631B041B0C43F0BF6343F40033034354
:10021C00D360704700ED00E0174B30B5DC68C4F3D9
:10022C000224C4F10703251D042B28BF0423062D2B
:10023C004FF0010598BF002405FA03F303F1FF33D7
:10024C0088BF033C1940A14005FA04F4013C22404C
:10025C00002842EA01024FEA0212AFBF00F16040EF
:10026C00064B00F00F00D2B2A5BFD2B200F5614030
:10027C001A5480F8002330BD00ED00E014ED00E0CE
:10028C000138B0F1807F0AD2F021064B064A586043
:10029C0082F823100020072298601A607047012012
:1002AC00704700BF10E000E000ED00E02DE9F74FD3
:1002BC0000221646654BDFF8A4E1DFF8A4C14FF02D
:1002CC0001080C6808FA06F808EA0404A0457FD176
:1002DC004D68122D00F0AF8000F28880022D00F0E6
:1002EC00A7807CD8002D00F08E80012D00F09E8020
:1002FC004FF00F09FF2C93BF824606F18045083D55
:10030C00D0F800B092BFB500D0F804B0AD0009FA37
:10031C0005F82BEA080802FA05F588BF00F1040A73
:10032C0048EA0505CAF80050D1F804A01AF0805F1D
:10033C004ED0474D464FAD6926F0030845F00105F8
:10034C00BD61BD6908F1804805F00105019508F50E
:10035C00803806F0030B019D4FEA8B0BD8F8085040
:10036C0009FA0BF925EA09093A4DA84268D005F5B6
:10037C008065A84266D005F58065A84264D005F575
:10038C008065A8420CBF0325042505FA0BF545EA48
:10039C000905C8F808501D681AF4803F14BF25439E
:1003AC00A5431D605D681AF4003F14BF2543A543A7
:1003BC005D609D681AF4801F14BF2543A5439D60A2
:1003CC00DD681AF4001F14BF2C4325EA0404DC601A
:1003DC000136102E7FF473AF03B0BDE8F08F032D00
:1003EC0022D0112D84D1CA68043281E71A4FBD4244
:1003FC0009D012D8DFF86C904D4504D009F580393E
:10040C004D457FF475AF8A68C2B1012A0CBFC0F8A4
:10041C001080C0F8148008226AE77545F3D0654552
:10042C00F1D0DFF84490EBE7002261E7CA685FE7A0
:10043C00CA6808325CE7CA680C3259E7042257E7ED
:10044C000025A2E70125A0E702259EE70004014054
:10045C000010024000080140000021100000311083
:10046C000000321000001110000022100AB10161CE
:10047C0070470904FBE7C3685940C160704700002E
:10048C0003682DE9F341DB07054610D42B689F0761
:10049C005ED42B68190700F195802B685A0700F180
:1004AC00BF80EA69002A40F02D81002014E0904CB6
:1004BC00636803F00C03042B07D0636803F00C0390
:1004CC00082B0CD16368DE0309D523689C03DDD5AA
:1004DC006B68002BDAD1012002B0BDE8F0816B68AB
:1004EC00B3F5803F10D1236843F480332360FFF7CA
:1004FC0069FE064623689803C8D4FFF763FE801B89
:10050C006428F7D90320E7E79BB9236823F48033E9
:10051C002360236823F480232360FFF753FE0646F1
:10052C0023689903B2D5FFF74DFE801B6428F7D9D9
:10053C00E8E7B3F5A02F236803D143F480232360AD
:10054C00D1E723F480332360236823F48023CDE7A1
:10055C00674C636813F00C0F07D0636803F00C034F
:10056C00082B10D16368DA030DD423689B0702D5DE
:10057C002B69012BAFD123686A6923F0F80343EA96
:10058C00C203236085E72A695A4B6AB101221A60BB
:10059C00FFF718FE064623689F07ECD4FFF712FE00
:1005AC00801B0228F7D9ADE71A60FFF70BFE064651
:1005BC00236898077FF56DAFFFF704FE801B0228B8
:1005CC00F6D99FE7AA694A4C4B4BDAB101221A6063
:1005DC00FFF7F8FD0646636A9B070DD54FF4FA52F8
:1005EC00464B1B68B3FBF2F3019300BF019B5A1EF1
:1005FC000192002BF9D150E7FFF7E4FD801B022894
:10060C00E9D97FE71A60FFF7DDFD0646636A9F07AD
:10061C007FF543AFFFF7D6FD801B0228F6D971E7B3
:10062C00334CE369D80024D40127E36943F08053A9
:10063C00E361E36903F080530093009B304E336811
:10064C00D90518D5EB68012B26D1236A43F0010399
:10065C002362FFF7B7FD41F288368046236A9B0779
:10066C003FD5002F3FF41DAFE36923F08053E361C6
:10067C0017E70027E2E7336843F480733360FFF732
:10068C00A1FD80463368DA05DCD4FFF79BFDA0EBB7
:10069C0008006428F6D935E7ABB9236A41F28838EB
:1006AC0023F001032362236A23F004032362FFF780
:1006BC0089FD0646236A9807D3D5FFF783FD801B77
:1006CC004045F7D91EE7052B236A03D143F00403F9
:1006DC002362BAE723F001032362236A23F00403A5
:1006EC00B6E7FFF76FFDA0EB0800B042B6D909E7FB
:1006FC0000100240000042428004424208000020E8
:10070C0000700040224C636803F00C03082B3FF48C
:10071C00E2AE00231F4E022A33602BD1FFF752FDAD
:10072C000746236899011FD42B6AB3F5803F05D186
:10073C006268A96822F400320A436260696A6268DE
:10074C000B4322F474121343636001233360FFF7ED
:10075C0039FD054623689A013FF5A7AEFFF732FD38
:10076C00401B0228F6D9CDE6FFF72CFDC01B022852
:10077C00D7D9C7E6FFF726FD054623689B017FF511
:10078C0094AEFFF71FFD401B0228F6D9BAE600BF56
:10079C00001002406000424230B5194B87B002ACE9
:1007AC0003F11005224618685968083303C2AB429E
:1007BC001446F7D101238DF80430022311498DF82A
:1007CC0005304B6803F00C02082A17D1C3F383429F
:1007DC0006A80244DB0312F8102C0CD54B680A480F
:1007EC00C3F34043504306AA134413F8143CB0FB24
:1007FC00F3F007B030BD05485043FAE70248F8E77C
:10080C00B00B00080010024000127A0000093D00F5
:10081C00544A2DE9F0411368054603F007038B4257
:10082C000E462AD329688C0734D4CA0747D44D4ABC
:10083C00136803F007039E42C0F082802A684A4C7A
:10084C0012F0040F40F08780130706D563682A69FD
:10085C0023F4605343EAC2036360FFF79DFF6368B0
:10086C00424AC3F30313D35CD840414B18600020B9
:10087C00FFF766FC0020BDE8F081136823F0070346
:10088C000B431360136803F007039942CAD001208D
:10089C00BDE8F081344B11F0040F1EBF5A6842F4CE
:1008AC00E0625A60080742BF5A6842F460525A60CC
:1008BC005A68A86822F0F00202435A60B5E76A68E9
:1008CC00294C012A23681CD113F4003FDFD0636844
:1008DC0041F2883823F0030313436360FFF772FC83
:1008EC006B680746012B14D1636803F00C03042BCF
:1008FC009DD0FFF767FCC01B4045F5D90320BDE830
:10090C00F081022A02D113F0007FDFE713F0020F0F
:10091C00DCE7022B0FD1636803F00C03082B86D0A5
:10092C00FFF750FCC01B4045F5D9E7E7FFF74AFC41
:10093C00C01B4045E2D8636813F00C0FF6D176E784
:10094C00136823F0070333431360136803F00703A2
:10095C009E429CD172E76368E96823F4E0630B4321
:10096C00636071E70020024000100240C00B0008D9
:10097C000800002010B590B02822002106A800F035
:10098C00FDF81422002101A800F0F8F801230A93C5
:10099C00102302240B934FF4601306A80F930694B4
:1009AC000D94FFF76DFD0F234FF48062019300232C
:1009BC00214601A80294039304920593FFF728FFA4
:1009CC0010B010BD7FB5FFF7DFFBFFF7D3FF102290
:1009DC00002102A800F0D2F8184B4FF400519A698C
:1009EC00174842F010029A619A69154C02F01002F5
:1009FC000092009A9A6942F004029A619B69002263
:100A0C0003F004030193019BFFF730FD4FF40053F7
:100A1C0002930123039300230493022302A90848A1
:100A2C000593FFF743FC20464FF40051FFF723FDDD
:100A3C004FF49670FFF7CCFBF5E700BF00100240B7
:100A4C00001001400E4B82B09A6942F001029A618B
:100A5C009A6902F001020092009ADA6942F080521F
:100A6C00DA61DB69074A03F080530193019B5368F9
:100A7C0023F0E06343F00073536002B0704700BF93
:100A8C0000100240000001407047FEE7FEE7FEE761
:100A9C00FEE7704770477047FFF788BB0F4B1A682B
:100AAC0042F001021A6059680D4A0A405A601A68ED
:100ABC0022F0847222F480321A601A6822F48022A6
:100ACC001A605A6822F4FE025A604FF41F029A60B0
:100ADC004FF00062034B9A60704700BF0010024059
:100AEC000000FFF800ED00E0002103E00B4B5B5829
:100AFC00435004310A480B4B42189A42F6D30A4A27
:100B0C0002E0002342F8043B084B9A42F9D3FFF76A
:100B1C00C5FF00F00FF8FFF755FF7047D80B000822
:100B2C00000000200C0000200C0000202C000020F5
:100B3C00FEE7000070B500250C4E0D4CA41BA41054
:100B4C00A54209D100F022F800250A4E0A4CA41B3C
:100B5C00A410A54205D170BD56F825309847013533
:100B6C00EEE756F8253098470135F2E7D00B000830
:100B7C00D00B0008D00B0008D40B0008034602442D
:100B8C00934200D1704703F8011BF9E7F8B500BF99
:100B9C00F8BC08BC9E467047F8B500BFF8BC08BC52
:040BAC009E467047AA
:100BB00002030405060708090A0B0C0D0E0F10109E
:100BC00000000000000000000102030406070809FD
:040BD00031010008E7
:040BD4000D01000807
:0C0BD800010000001000000000A24A0410
:0400000508000AF5F0
:00000001FF
